:020000040800F2
:10000000782D0020450100087F4B0008B934000816
:100010007D4B0008850800083975000800000000C5
:1000200000000000000000000000000079510008FE
:10003000D708000800000000854C00087B5100082C
:100040005F0100085F0100085F0100085F01000810
:100050005F0100085F010008A50C0008010D000801
:10006000290D0008390D00083F0D00088908000817
:100070005F0100085F0100085F01000895080008A3
:10008000A10800085F0100085F0100085F01000887
:100090005F0100085F0100085F010008450D0008CE
:1000A0005F0100085F0100085F0100085F010008B0
:1000B0005F0100085F0100085F010008BD3400080F
:1000C0005F0100085F0100085F0100085F01000890
:1000D0005F0100085F0100085F0100085F01000880
:1000E000F90C00085F0100085F0100085F010008CB
:1000F0005F0100085F0100085F0100085F01000860
:100100005F0100085F0100085F0100085F0100084F
:100110005F0100085F010008ED5100085F01000861
:100120005F0100085F0100085F0100085F0100082F
:10013000DFF80CD000F0B6FA00480047CD97000871
:10014000782D00200648804706480047FEE7FEE776
:10015000FEE7FEE7FEE7FEE7FEE7FEE7FEE7FEE777
:10016000EB51000831010008202A04DB203A21FA73
:1001700002F00021704721FA02F3D040C2F12002C0
:10018000914008431946704740EA01039B0703D09A
:1001900009E008C9121F08C0042AFAD203E011F8C6
:1001A000013B00F8013B521EF9D27047D2B201E088
:1001B00000F8012B491EFBD270470022F6E710B56C
:1001C00013460A4604461946FFF7F0FF204610BDC5
:1001D000421C10F8011B0029FBD1801A704710B592
:1001E000002200E0521C835C8C5CA34201D1002BF6
:1001F000F8D1D8B2E1B2401A10BD034611F8012B74
:1002000000F8012B002AF9D118467047F0B480EAB3
:100210000102D40F4200B2EB410F02D2024608465F
:1002200011464A0042D0C30DDDB2C1F3C752AD1A28
:10023000202D35DAC1F3160141F4000204B1524217
:10024000C5F1200602FA06F12A411044B3EBD05F53
:1002500023D0C4B1012DA0EBC35009DCF0BC4FF09A
:10026000004202EAC352DBB200F5000000F08FB991
:10027000400000F1807000EBC350A0F1807040EAB4
:10028000D170490009E0490841EAC071A0EBC350B0
:1002900000F50000400800EBC350F0BC00F06EB960
:1002A0006142012202EB4101001BF6E7F0BC7047FE
:1002B00081F00041AAE780F00040A7E780EA010250
:1002C00010B502F00043400022D04A001FD0010EBA
:1002D00001EB1261C0F35600C2F3560240F4000075
:1002E00042F40002A0FB022000047F39140400D075
:1002F000401C50EA124001D44000491EC2B20C0614
:1003000004EBD010401C4008802A02D003E00020FB
:1003100010BD20F00100002900DA0020184310BDB4
:1003200030B480EA010202F0004530F0004221F0D2
:10033000004013D090B1C30DD40DC2F31601C0F329
:100340001600E41A41F4000140F400027D349142A9
:1003500001D3641C00E04900002C02DA30BC00200C
:1003600070474FF400000023914201D3891A0343E0
:1003700040084FEA4101F7D151B1914202D14FF00B
:10038000004105E002D24FF0010101E06FF00101F0
:1003900003EBC450284430BC00F0F0B82DE9F04D18
:1003A00081EA030404F0004B21F0004514464FF0AD
:1003B000000A23F0004150EA050220D054EA01026D
:1003C0001DD0C5F30A570246C5F31303C1F313004A
:1003D000C1F30A5640F4801543F48013A7EB0608D6
:1003E000101BD64608F2FD3873EB050002D308F166
:1003F000010801E092185B41B8F1000F03DA002018
:100400000146BDE8F08D00204FF480110646844679
:100410000EE0171B73EB050705D3121B63EB0503F7
:1004200006434CEA010C49084FEA300092185B4140
:1004300050EA0107EDD152EA030012D082EA04002B
:1004400083EA0501084305D0101BAB4106D2012207
:10045000002306E000224FF0004302E06FF00102AB
:1004600053101AEB06004CEB085110EB0A0041EB5D
:100470000B01BDE8F04D00F0B8B8C10F80EAE070A4
:100480000844CA079623002100F081B89623002271
:10049000114600F07CB80EB5C10F80EAE070084448
:1004A000CA07002140F233438DE80E000A460B468E
:1004B00000F0AAF803B000BD00F0004220F00040B8
:1004C000C10DC0F3160040F400007F2901DA0020BE
:1004D0007047962903DCC1F19601C84001E09639C6
:1004E0008840002AF4D04042704720F00040C10DFF
:1004F000C0F3160040F400007F2901DA00207047A5
:10050000962903DCC1F19601C840704796398840AE
:10051000704770B5C1F30A5201F000450024C1F3E1
:10052000130140F2FF3341F480119A4201DA0020B6
:1005300070BD40F233439A42A2F2334203DC52428E
:10054000FFF712FE00E090402C43F1D0404270BD16
:1005500030B50B46014600202022012409E021FA93
:1005600002F59D4205D303FA02F5491B04FA02F590
:100570002844151EA2F10102F1DC30BD0029A8BFFC
:100580007047401C490008BF20F00100704710B4BC
:10059000B0FA80FC00FA0CF050EA010404BF10BC71
:1005A000704749B1CCF1200421FA04F411FA0CF19E
:1005B00018BF012121430843A3EB0C01CB1D4FEAD7
:1005C00000614FEA102042BF002010BC704700EBD2
:1005D000C35010440029A4BF10BC7047401C490000
:1005E00008BF20F0010010BC704710B5141E73F155
:1005F000000408DA401C41F1000192185B411A43E3
:1006000001D120F0010010BD2DE9F04D92469B462E
:1006100011B1B1FA81F202E0B0FA80F220329046D4
:1006200000F052F804460F4640EA0A0041EA0B0186
:1006300053465A46084313D0114653EA010019D0D5
:10064000C8F140025046FFF78FFD05460E46504662
:100650005946424600F038F8084305D0012004E02E
:1006600020463946BDE8F08D0020054346EAE07695
:100670002C4337430A986305E40AA0EB08000022E4
:10068000FD0A44EA47540A3002D500200146E9E752
:10069000010510196941DDE9084500196941BDE806
:1006A000F04DA2E7064C074D06E0E06840F001037C
:1006B00094E8070098471034AC42F6D3FFF73CFDAE
:1006C0009CB30008BCB30008202A04DB203A00FADF
:1006D00002F1002070479140C2F1200320FA03F399
:1006E00019439040704770B58D1810F8014B14F005
:1006F000030201D110F8012B231106D110F8013BA0
:1007000003E010F8016B01F8016B521EF9D1ABB197
:1007100010F8012B04F00C048A1A0C2C03D0A2EB65
:1007200084129B1C08E010F8014BA2EB0422F8E7AE
:1007300012F8014B01F8014B5B1EF9D5A942D4D345
:10074000002070BD70B5044600688168C943C907C0
:1007500016D1816821F00101816001F0DFF90546C1
:1007600009E001F0DBF9401B022804D92068806809
:10077000C043C00706D020688068C043C007F0D0DF
:10078000002070BDA06A40F01000A062E06A40F056
:100790000100E062012070BD10B50146406A826A26
:1007A00012F0500F05D0006A026BBDE810400846F9
:1007B0001047816A41F40071816201688968C1F360
:1007C000424107290CD1017B51B9816A21F4807122
:1007D0008162816AC90403D4816A41F001018162A6
:1007E00000F02EFC10BD10B5406A816A41F0400156
:1007F0008162C16A41F00401C16200F023FC10BDB6
:1008000010B5406A00F01DFC10BD0000F8B50026D0
:100810000446009600688168C943C9072CD08168E6
:1008200041F001018160154815490068B0FBF1F005
:1008300000E0401E00900028FBD101F06FF9054652
:1008400015E001F06BF9401B022810D92068806880
:10085000C043C0070BD0A06A40F01000A062E06A5D
:1008600040F00100E06284F824600120F8BD2068B7
:100870008068C043C007E4D10020F8BD20100020EC
:1008800040420F00FEE70000014800F0D7BD000025
:1008900030250020014800F0D1BD0000B82700201D
:1008A000014800F0CBBD0000C825002030B590F80D
:1008B00040500124AC40C56B6C60046863604368C1
:1008C000102B036803D099600068C26030BD9A6045
:1008D0000068C16030BD70470C490A880C4909881E
:1008E00060B1012810D14EF6EE6009B11AB107E0EF
:1008F000824209D006E0814204D005E022B109B16C
:10090000AB207047012070470020704700F00308BB
:1009100000F8030830B585B00020174D0090012184
:100920000190CDE903512C4600F0D4FF204600F0A1
:1009300091F928B9694601A800F02CFF040012D1F2
:10094000002213462946012000F082FF04000AD14C
:100950000A48039000F07EF950B9694601A800F0FA
:1009600019FF040004D000F069FF204605B030BD37
:1009700000F064FF0020F9E700F0030800F8030826
:100980002DE9F04F85B00024594E0494651E31883E
:10099000A146DFF86081B8F800004FF0010ACDE908
:1009A000026A2B0C544F554A0094002969D0A1F6D5
:1009B000EE61B1F5604122D001F6EF61B1F5005F63
:1009C0001AD140B1A0F56E41EE3915D1304600F094
:1009D00041F938B10CE0304684E004A9684600F0E3
:1009E000D9FE48E004A9684600F0D4FE002845D1AD
:1009F0000022134641463BE0FFF78CFF3BE040B14D
:100A00009842F9D14046CDF8088000F023F930B380
:100A10002BE09346F18837F81400814200D125B2CB
:100A2000AC420CD0354900F0C5F8012807D037F8A2
:100A30001400BBF8001000F0E1F800281ED1641C7F
:100A4000A4B2B82CE6D3002213463146012000F0B0
:100A5000FFFE002812D14046CDF8009040E004A9E6
:100A6000684600F097FE002808D100221346314660
:100A7000012000F0EDFE002800D1002005B0BDE807
:100A8000F08F0028B8D0984203D14046CDF80880B6
:100A900028E093461748801D018837F814008142EA
:100AA00000D125B2AC420CD0144900F083F80128E3
:100AB00007D037F81400BBF8001000F09FF80028AA
:100AC000DCD1641CA4B2B82CE4D300221346414606
:100AD000012000F0BDFE0028D0D13046CDF80090B6
:100AE000CDE9020A00F0B6F800283FF476AFC4E77B
:100AF00000F0030800F80308A022002012100020D4
:100B00002DE9F047002486B0264D80460E462F463C
:100B1000A14620460494FFF7DFFE2349012804D0B4
:100B200028B1AB2006B0BDE8F0870D4600E00F46C7
:100B30004EF6EE6200233946012000F089FE0028BF
:100B4000F0D13146404600F059F80028EAD1174E5E
:100B5000DFF85CA036F8140040450CD0144900F0D2
:100B600029F8012807D036F81400BAF8001000F070
:100B700045F80028D6D1641CA4B2B82CEAD30120D1
:100B8000CDE9025004A9CDF80090684600F002FEBD
:100B90000028C7D1002213463946012000F058FE34
:100BA000C0E7000000F0030800F80308A0220020BE
:100BB000121000202DE9F04105460E4601240D4F8C
:100BC0000020FFF789FEAB2812D00B4A07EBC021AB
:100BD00002EBC022891C08E01088A84204D132F838
:100BE000020C3080002402E0121F8A42F4D8204612
:100BF000BDE8F08100F00308FEF7030870B5064673
:100C00000D46124C0120FFF767FEAB280CD01049AF
:100C100004EBC02401EBC02003E02168491C04D090
:100C2000241D8442F9D3802070BD2A46002321462A
:100C3000012000F00DFE0028F6D1A11C3246BDE8CF
:100C400070400023012000F003BE000000F0030804
:100C5000FFF7030810B501234FF6FF72054C05E0BE
:100C60000188914201D0002302E0001DA042F7D983
:100C7000184610BDFFF7030870B50D46064600F094
:100C800029FE29463046FFF7B9FF0446802804D1E3
:100C900029463046FFF734FF044600F0CFFD2046DA
:100CA00070BD00000F49012008700F480078B0B1F6
:100CB0000E4840F2AF1201886420B1FBF0F15143BD
:100CC0000B4A02EB41014FF40C72B1F9561151433A
:100CD00091FBF0F047F6FF71081A06490860012001
:100CE00000F00EBEA80F0020AB0F0020DE01002098
:100CF00028150020243401404FF4806000F000BE2D
:100D00000648416A064A1180002141620548C16BCC
:100D1000491CC163022000F0F3BD00000010004038
:100D2000C20F0020882400200249012008700420FE
:100D300000F0E6BDE00F0020082000F0E1BD10202B
:100D400000F0DEBD10B5202000F0DAFDBDE8104057
:100D5000402000F0D5BD704706490020C861064814
:100D6000016941F004010161016941F04001016143
:100D7000704700005829002000200240064A002148
:100D8000D16106490A6942F002020A6148610869B4
:100D900040F04000086170475829002000200240C0
:100DA000044B0022DA61044A136943F00103136122
:100DB000018070475829002000200240144900207B
:100DC000CA68D306134A04D5D06940F00200D06146
:100DD0001020CB685B0705D5D36943F00103D361CD
:100DE00040F00400CB69DB0707D0D36943F004036C
:100DF000D361CA6922F00102CA61A0F58072013A8A
:100E000001D0C8607047C86920F00100C861704710
:100E1000002002405829002070B5044600F07EFEF4
:100E20000546114E09E0601C07D024B100F076FEA3
:100E3000401BA04201D9032070BDF068C007F2D169
:100E4000F068800601D52020F060F068C00605D467
:100E5000F069C00702D1F068400703D5FFF7AEFF85
:100E6000012070BD002070BD00200240F8B50026B2
:100E70000446009690F82400012808D0012084F848
:100E800024002046FFF75EFC070002D053E002205A
:100E9000F8BDA06A20F4885040F00200A062022051
:100EA00001F0EEFA26490968B1FBF0F0400000E0DD
:100EB000401E00900028FBD12046FFF7A7FC2068C9
:100EC000816841F00801816000F028FE054608E0D5
:100ED00000F024FE401B0A2803D920688068000720
:100EE00015D4206880680007F2D42068816841F03A
:100EF0000401816000F012FE054612E000F00EFED3
:100F0000401B0A280DD920688068400709D5A06ACF
:100F100020F0020040F01000A06284F8246001205C
:100F2000F8BD206880684007E8D4A06A20F002007D
:100F300040F00100A06284F824603846F8BD00004B
:100F400020100020F8B50023009390F824201C46C0
:100F5000012A12D0012280F824204A681F26072A7D
:100F60000DD205686F6B521E02EB82029640B743AA
:100F70000E68964037436F6319E00220F8BD05689C
:100F80000D2A0AD22F6BD21F02EB82029640B74382
:100F90000E68964037432F6309E0EF6A0D3A02EB83
:100FA00082029640B7430E6896403743EF620A6864
:100FB000072605680A2A0AD3EF680A3A02EB4202BA
:100FC0009640B7438E6896403743EF6008E02F693C
:100FD00002EB42029640B7438E68964037432F613A
:100FE0000A68102A01D0112A20D1124D0268AA42A3
:100FF00017D195682D0219D4956845F400059560C0
:101000000968102912D10C490C4A0968B1FBF2F1A8
:1010100001EB8101490000E0491E00910029FBD14C
:1010200004E0816A41F020018162012380F82440BC
:101030001846F8BD002401402010002040420F0057
:1010400070477047704700002DE9F04104004FF0F1
:1010500000057FD0A06A002628B9E66284F82460E3
:10106000204600F081F82046FFF76CFBA16AC90614
:1010700000D420B1A06A40F01000A0626AE0A16A2A
:1010800021F4885141F00201A162334923688B4267
:10109000E16904D1B1F5402F01D14FF40021277B44
:1010A0004FF4807C41EA470261680A43A1686145C8
:1010B00008D0012906D0002194F814E0BEF1010FF8
:1010C00002D00AE06146F7E7C7B1A76A47F02007F8
:1010D000A762E76A47F00107E7625F6827F469479C
:1010E0000F435F6021688B681C4F3B4013438B604C
:1010F000A16861450BD0012909D00CE0DFF860E060
:10110000A7690EEB47370F4347F40061E5E7218AF3
:101110000D05A5F580152168CB6A23F470032B43D8
:10112000CB62216889680F4B1940914208D1E66271
:10113000A16A21F0020141F00101A162BDE8F08144
:10114000A06A20F0020040F01000A062E06A40F0C7
:101150000100E0620120F1E7003C0140FDF7E1FF02
:1011600000E0FFFFFE0E1FFF70B586B000240646AC
:10117000009401940294039400681A4988422ED185
:101180001949886940F400708861886900F400702A
:101190000490886940F0100088618869694600F011
:1011A0001000049002200090032001900F4800F0EE
:1011B000B3FB104D0E48C5E900048020C5E902408C
:1011C00040002861800068612020C5E906042846A7
:1011D00000F058FA08B1FFF7BEFD35626E6206B046
:1011E00070BD0000002401400010024000100140CA
:1011F00008000240302500202DE9F04789460446CA
:101200003B4900683B4F0E1D9046884201D0B842D2
:1012100007D1306810F4702F03D001252846BDE8AF
:10122000F08794F8240001280CD0012084F82400D1
:101230002046FFF7EBFA05004FF0000104D084F8D8
:101240002410EBE70220EAE7A06A40F6016290432F
:1012500040F48070A0622068B84218D1326812F45D
:10126000702F14D0A06A40F48010A062306840054E
:1012700005D5A06A20F4005040F48050A062A06A16
:10128000C0040AD5E06A20F00600E06206E0A26A27
:1012900022F48012A2624068E9E7E16284F8241037
:1012A000216A15488862216A1448C862216A144874
:1012B000086321686FF0020008602068816841F4CB
:1012C00080718160216843464A464C31206A00F0B3
:1012D00017FA20688168C1F342410729816803D069
:1012E00041F48011816099E741F4A001FAE7000020
:1012F0000024014000280140990700080108000867
:10130000E70700082DE9F05F90F82110002402297A
:1013100003D004218163012485E001680A6822F07A
:101320000E020A6001680A6822F001020A603F4E5C
:101330003E4FB215DFF8F4C0DFF8F090DFF8ECA014
:10134000DFF8E8B0DFF8E4E00168783F1301150248
:10135000ACF1640CA9F15009AAF13C0AABF1280BDD
:10136000AEF1140E4FF48018B14227D9B9420ED015
:10137000614512D049451DD0514518D0594518D066
:10138000714501D1424615E0294EB14201D10122F9
:1013900010E0274E1436B14201D110220AE0244E4B
:1013A0002836B14206D0224A3C32914201D11A4637
:1013B00000E02A461E49091F0A602BE0B94213D0FB
:1013C000614517D0494522D051451DD059451DD002
:1013D000714501D142461AE0B14202D14FF080720C
:1013E00015E0134EB14201D1012210E0104E143627
:1013F000B14201D110220AE00D4E2836B14206D08A
:101400000B4A3C32914201D11A4600E02A46074974
:1014100080394A60012180F82110002180F82010D5
:10142000416B01B188472046BDE8F09F8000024033
:101430000804024090F82100704700002DE9F05F99
:10144000C16B0B6801680A68046C4FF0040808FA65
:1014500004F8844D844E854FDFF814C2DFF81492EF
:10146000DFF814A2DFF814B2DFF814E218EA030F71
:1014700065D05FEA427862D50A68920603D40A68AA
:1014800022F004020A60DFF8F0814FF48062016804
:1014900008F1140813011402414524D9A9420DD0C2
:1014A000B1420FD0B9421AD0614515D0494515D087
:1014B000514501D1120312E0594501D104220EE039
:1014C000714501D140220AE06D4D1435A94206D084
:1014D0006B4A2832914201D11A4600E02246674900
:1014E000091F0A6029E0A94213D0B14215D0B942C0
:1014F00020D061451BD049451BD0514502D14FF446
:10150000800217E0414502D14FF0806212E0594558
:1015100001D104220EE0714501D140220AE0584D6C
:101520001435A94206D0564A2832914201D11A46B2
:1015300000E022464B4908394A60C16A71E04FF029
:10154000020808FA04F818EA030F70D05FEA8278FC
:101550006DD50A68920606D40A6822F00A020A606B
:10156000012180F82110DFF810814FF4007201682A
:1015700008F1140813011402414524D9A9420DD0E1
:10158000B1420FD0B9421AD0614515D0494515D0A6
:10159000514501D1120312E0594501D102220EE05A
:1015A000714501D120220AE0354D1435A94206D0FB
:1015B000334A2832914201D11A4600E022462F498F
:1015C000091F0A6029E0A94213D0B14215D0B942DF
:1015D00020D061451BD049451BD0514502D14FF465
:1015E000001217E0414502D14FF0007212E0594558
:1015F00001D102220EE0714501D120220AE0204DE6
:101600001435A94206D01E4A2832914201D11A4609
:1016100000E02246134908394A60002180F8201072
:10162000816A00291CD0BDE8F05F0847FFE7082564
:10163000A5401D4214D0120712D50A6822F00E02EE
:101640000A6090F84020C36B012101FA02F25A604F
:10165000816380F82110002180F82010016BE0E701
:10166000BDE8F09F080002401C000240300002402C
:1016700044000240580002406C000240080402404E
:101680001C04024030B560B11A4B01681422994223
:1016900009D2194B0B44B3FBF2F292000264174AD1
:1016A0000AE0012030BD134B5B420B44B3FBF2F266
:1016B000920002640F4A083AC263022280F8212095
:1016C0000A6843F6F0739A43F0E901342343D0E902
:1016D00002452C432343046923434469234384691B
:1016E000234313430B6000214163012242770177BA
:1016F000084630BD08040240F8FFFDBF000002406C
:1017000070B5044690F82000002501280CD0012077
:1017100084F8200094F821600020012E06D084F87F
:1017200020000225284670BD022070BD022684F8E4
:101730002160A0632068066826F001060660204646
:10174000FFF7B4F8E06A00282068016802D041F091
:101750000E0106E021F0040101602068016841F0FB
:101760000A0101602068016841F001010160D9E7C8
:1017700070B5044600F0D2F90546601C02D004485A
:101780000078044400F0CAF9401BA042FAD370BDAF
:10179000141000202DE9F047054626480F46012683
:1017A000017E01290FD00121814601762868DFF8EA
:1017B00088804CF25034022808D0A2462046FFF719
:1017C0002BFBA8B131E00220BDE8F0872046FFF7EF
:1017D00023FB08BB0120FFF7BFFA2046FFF71CFBE5
:1017E000D8F81010064621F00401C8F810101CE0CB
:1017F0004FF0FF303860AC6811E02046FFF7BEFACA
:101800005046FFF709FBD8F81010060021F002013E
:10181000C8F8101001D03C6007E004F50064D5E979
:10182000020100EBC120A042E7D8002189F818107E
:101830003046C9E7582900200020024003480169CA
:1018400041F080010161002070470000002002404B
:101850002DE9F05F05461D4888460024017E1646A6
:101860001F46012909D00121814601764CF2503AE8
:101870005046FFF7D1FA18B123E00220BDE8F09FEF
:10188000012D02D0022D00D00425D346DFF840A060
:1018900015E0220130463946FEF766FC81B208EBBE
:1018A0004400FFF77DFA5846FFF7B6FADAF8102041
:1018B00022F00102CAF8102018B9641CE4B2AC424C
:1018C000E7D3002289F81820D8E700005829002023
:1018D00000200240064900200A69120607D5054A81
:1018E0004A60054A4A600969090600D50120704727
:1018F0000020024023016745AB89EFCD704700000F
:10190000044910B50A68024202D00860FFF7F6FFEA
:1019100010BD0000140401402DE9F84FDFF8C0911C
:10192000002409F1040A0AF1040B23464FF00F08C2
:101930000BF1040ECCE00127A7403A40BA4272D125
:10194000DFF8A0C14D68A5EB0C0665452BD00DDC7A
:10195000032D34D005DC35B3012D19D0022D2FD144
:101960001BE0112D16D0122D2AD119E0B6F5881FD3
:1019700019D006DCB6F5803F15D0B6F5801F1FD113
:1019800011E0B6F5001F0ED0B6F5041F18D10AE01D
:10199000CB6815E0CB681B1D12E0CB6808330FE065
:1019A000CB680C330CE08B682BB1012B4FF0080394
:1019B00003D0476104E0042302E0076100E0002354
:1019C000FF2A01D8064601E000F104064FEA84052B
:1019D00001D9A5F12005376808FA05FC27EA0C07AC
:1019E00003FA05F547EA050737604D68ED006ED547
:1019F0003D4DAE6946F00106AE61AD6924F00306C7
:101A000005F001050095394D7719BE68A5072D0F22
:101A100008FA05FC26EA0C06DFF8D4C0604503D1BD
:101A20004FF0000C25E052E0DFF8C8C0604502D15D
:101A30004FF0010C1DE0DFF8C0C0604502D14FF04F
:101A4000020C16E0DFF8B4C0604502D14FF0030C81
:101A50000FE0DFF8ACC0604502D14FF0040C08E0A5
:101A6000DFF8A0C0604502D14FF0050C01E04FF057
:101A7000060C0CFA05FC4CEA060CC7F808C04D68C9
:101A8000D9F80060ED034D4601D5164300E09643BA
:101A90002E604D68DAF80060AD03554601D5164357
:101AA00000E096432E604D68DBF80060ED025D4675
:101AB00001D5164300E096432E604D68DEF80060C5
:101AC000AD02754601D5164300E096432E60641CB6
:101AD0000A6832FA04F57FF42EAFBDE8F88F0000F3
:101AE00000040140000011100010024000000140FD
:101AF00000080140000C01400010014000140140AA
:101B000000180140001C01408068084000D00120FE
:101B100070470AB1016170470904FBE7014880681A
:101B20007047000014100020704770472DE9F047FF
:101B3000026800215368C66A90F83E4090F83D5014
:101B4000102C12D0402C10D0046C002C7DD0546985
:101B5000E443A6077AD4DE43B60577D4036C03B119
:101B60009169BDE8F04702F07BB9976951694FF47C
:101B70002A0CC9435FEAC1784FF02A4904D0664570
:101B80002AD04E4528D010E0DE43B6050DD4C16AF8
:101B9000614501D1012103E0C16A494501D1082114
:101BA000C162BDE8F04702F071B80E0716D4DE43FB
:101BB000B60513D4416CC9B21161416B09B1896A90
:101BC00029B9816B002907D0896A002904D00068EF
:101BD000416841F400614160BDE8F0878E0706D49A
:101BE000DE43B60503D4BDE8F04701F0A3BFFE43D2
:101BF000526876074FEA02521DD4002AECDB0A062F
:101C000008D4DA43520505D4490705D5BDE8F047A5
:101C100001F036BF4907DFD4D9438905DCD4212D33
:101C200005D0402CD8D1BDE8F04702F074B8BDE82B
:101C3000F04701F0E5BE002ACEDB4A060BD4DA43BA
:101C4000520508D4490708D501E00DE00EE0BDE8D3
:101C5000F04701F061BE4907BED4D9438905BBD422
:101C6000BDE8F04701F0EFBD916970E7E10606D4E9
:101C7000D943890503D4BDE8F04702F015B92826F9
:101C8000212D27D0292D25D0610655D4D9434905CA
:101C900052D4610752D590F83D10438D002B9BD054
:101CA0001269436A1A70426A521C4262428D521E85
:101CB0004285428D002A8FD12A298DD101684A6838
:101CC00022F480624A602221016380F83D6000F0C6
:101CD0003DFB81E7210623D4D943490520D4610780
:101CE00020D590F83D10438D002BF2D0436A1B782D
:101CF0001361426A521C4262428D521E4285428DDD
:101D0000002AE6D12929E4D101684A6822F48062D8
:101D10004A602121016380F83D6000F018FB5BE719
:101D20006107D6D4D9438905D3D4418D0029D0D0B9
:101D3000416A097811610AE06107CAD4D94389056B
:101D4000C7D4418D0029C4D01169426A1170416A1B
:101D5000491C4162418D491E41853DE7704790F81D
:101D60003D00704770B5040025D094F83D00002573
:101D700020B984F83C50204600F098FA242084F8DA
:101D80003D002068016821F00101016020680168C0
:101D900041F4004101602068016821F400410160C4
:101DA00000F0E8FC4D4B6168994201D84C4900E0D5
:101DB0004C49884201D2012070BD4B492268B0FBDA
:101DC000F1F1566826F03F060E43566062689A426B
:101DD00006D94FF4967251434FF47A72B1FBF2F187
:101DE0002268491C166A26F03F0631431162616879
:101DF000994210D84900401EB0FBF1F2521CC2F3C8
:101E00000B02042A01D2042022E0B0FBF1F0401CB6
:101E1000C0F30B001CE0A268F2B301EBC10303EBBB
:101E20000116431EB3FBF6F35B1C43F480431B0512
:101E300049D092B301EBC10202EB0111401EB0FB8D
:101E4000F1F0401CC0F30B0040F4804040F400402F
:101E50002168CA694CF6FF739A431043C861D4E9FC
:101E6000071001432068026822F0C002114301609C
:101E7000D4E9030101432068826848F2FF339A43A2
:101E800011438160D4E9051001432068C26822F043
:101E9000FF021143C16001E00EE016E02068016816
:101EA00041F0010101602564202084F83D00256394
:101EB00084F83E50002070BD01EB4106431EB3FB89
:101EC000F6F35B1CB3E70120C2E701EB4101401EC2
:101ED000B0FBF1F0401CC0F30B00B7E7A086010097
:101EE00080841E0000093D0040420F002DE9FF4F95
:101EF00081B01F4693460446FFF710FE054694F84E
:101F00003D00012620287DD1192301225049204679
:101F1000009502F077F8002874D194F83C0001286D
:101F200070D0012084F83C0020680168C90703D103
:101F3000016841F0010101602068016821F400613D
:101F40000160242084F83D004FF0000AC4F840A04E
:101F50004048E0624FF020092068016841F4807138
:101F600001603B4600224FF001112046009502F02F
:101F700049F850B120680068C00502D54FF40070E0
:101F80002064032005B0BDE8F08F0298216800F0BE
:101F9000FE000861FFF7C2FD0546206841694069FF
:101FA000C1F34001C0F380204FF0A0080EE0FFF71E
:101FB000B5FD401BB84200D80FB984F83D802068B9
:101FC00041694069C1F34001C0F3802094F83D208D
:101FD000A02A02D009B90028E9D084F83D902068F1
:101FE0004169C943890717D4016841F40071016050
:101FF0002068564641698069192301221449204608
:10200000009500E022E001F0FDFFA8B984F83D90C2
:1020100084F83C600020B5E7016841F4007101607C
:1020200021686FF480604861192301220849204625
:10203000009501F0E7FF08B10120A3E7761C5E459B
:102040008AD384F83D9084F83CA0F5E7022099E714
:10205000020010000000FFFF704770477047704794
:102060007CB52D490068096888423DD12B4C6078C9
:10207000002839D06078E57900220121E31CA842CC
:1020800033D26078401C6070607800F00300032851
:1020900005D0D8B101281ED002281ED036E06078C5
:1020A0006279C0F382008140114201D007F042FD05
:1020B00060788221C0F38200194A00EB801002EBA5
:1020C000400001234022CDE9000109E06078C0F31F
:1020D0008200B03002E0E27018E01020E07015E0FD
:1020E00078210D4800F01EF87CBDA07818B1A078CA
:1020F000E070A27007E0207920B1B020E0704020AD
:10210000607000E0627060780028EDD0CDE90031A9
:1021100001230022E4E7000074250020B80100201C
:10212000241000202DE9FF4F83B00025DDE9109831
:102130009A46934604460095FFF7F0FC074694F84C
:102140003D0020286FD155482026016846F2A8108E
:10215000B1FBF0F000EBC00101EB00100090009823
:10216000401E009010D020688069C0438007F6D5DB
:1021700094F83C00012856D0012084F83C002068E7
:102180000168C9070AD00DE044F8305F6673A57393
:10219000206940F020002061257337E0016841F09C
:1021A000010101602068016821F4006101602120C3
:1021B00084F83D00402084F83E002564C4F8249053
:1021C000A4F82A80608D20853548E062208D58B3C0
:1021D000606BF8B133498162616B33480863606BAF
:1021E000C562606B45632268238D1032616A606B43
:1021F000FFF786FAC8B184F83D6084F83E5054F881
:10220000400F40F0100044F804092570012007B089
:10221000BDE8F08F84F83D6084F83E5054F8400FDC
:1022200040F08000EFE736E02CE02320CDE9000706
:1022300053465A462046049901F0BEFD88B1606BB2
:10224000FFF760F8606B85622068016821F48061A7
:102250000160258565852068016821F00101016024
:10226000D4E7206841698169009184F83C50416855
:1022700041F4807141602068416841F4006141602F
:102280000020C4E784F83D6084F83E5054F8400FC5
:1022900040F04000B7E70220B9E70000201000201E
:1022A0000000FFFFB73500088135000870B586B023
:1022B00000240646009401940294039400681E4989
:1022C000884236D11D4DA86940F00800A861A86970
:1022D000694600F008000490C02000901220019090
:1022E000032003901648FFF717FBE86940F400103D
:1022F000E861E869144D00F400100490114828606A
:102300001020C5E901048020C5E903046C61AC61BB
:102310002846EC61FFF7B6F908B1FEF71CFD7563BE
:10232000002211461F206E6200F078F81F2000F096
:1023300067F806B070BD0000005400400010024075
:10234000000C01406C000240C82500207047704717
:10235000024881680278114481607047141000209F
:10236000074810B5016841F010010160032000F03A
:1023700075F8002000F006F800F024F8002010BDE9
:102380000020024070B50D4D04464FF47A71287854
:10239000B1FBF0F00A490968B1FBF0F000F0CCFBAA
:1023A00048B9102C07D200222146501E00F036F802
:1023B00000206C6070BD012070BD00001410002072
:1023C000201000200C4808B5816941F001018161AD
:1023D000816901F001010091C16941F08051C16141
:1023E000C069064900F080500090486820F0E06025
:1023F00040F00070486008BD00100240000001403D
:10240000002809DB00F01F020121914040098000F3
:1024100000F1E020C0F8001170470000F0B40E4B4E
:102420001B68C3F30223C3F10704042C00D904245E
:102430001D1D072D01D2002300E0DB1E012606FA38
:1024400004F56D1E0D409D409E40761E164045EAE7
:102450000601F0BC06F0F4BF0CED00E0064A00F007
:10246000070110684FF6FF03184040EA01200349B6
:1024700008431060704700000CED00E00000FA0512
:1024800010B501462BA086B01DC88DE81D002DA0FB
:102490002D4C00680490002004292FD00BDC01296A
:1024A0002FD0022928D100F075F96168C1F381317C
:1024B000491C49001EE0082920D010291CD1616860
:1024C0002268D20118D5C1F38342C9031DF8020066
:1024D00009D5616804AAC1F34041515C1B4AB2FBB3
:1024E000F1F1484301E01A4948436168490203D4C5
:1024F00040000321B0FBF1F006B010BD00F05AF926
:10250000FAE7226AC2F30121012903D1920701D51A
:10251000C803F1E7022905D1626A920702D549F69C
:102520004040E9E70329E7D121688903E4D54FF268
:102530002440E1E702030405060708090A0B0C0D15
:102540000E0F1010010200000010024000127A006D
:1025500000093D002DE9F84304460078344FC007D8
:1025600052D0F8690025C00008D4F86940F08050C6
:10257000F861F869012500F0805000902D4801684D
:10258000C90511D40168804641F480710160FFF7EC
:10259000C5FA064604E0FFF7C1FA801B642822D87A
:1025A000D8F80000C005F6D5386A10F4407020D085
:1025B000A18801F4407181421BD0386A1E49012272
:1025C00020F440700A6000220A603862C00710D010
:1025D000FFF7A4FA064641F2883807E0FFF79EFAB3
:1025E000811B414502D90320BDE8F883386A800782
:1025F000F4D5386A616820F44070084338621DB130
:10260000F86920F08050F8612078800705D5786857
:10261000A16820F44040084378602078C00605D5C2
:102620007868616920F48000084378600020DBE767
:102630000010024000700040400442422DE9F04783
:102640000D46040067D0DFF81881D8F8000000F0CC
:102650000700A8420CD2D8F8001021F00701294346
:10266000C8F80010D8F8000000F00700A84252D1C6
:1026700020683C4E810712D5400703D5706840F4AE
:10268000E06070602078000703D5706840F4605007
:1026900070607068A16820F0F000084370602078D6
:1026A000C00727D06068012810D03168022810D0F8
:1026B000890700292FDA716821F003010143716055
:1026C000FFF72CFA074641F288390CE0316889039C
:1026D000EFE78901EDE7FFF721FAC11B494502D970
:1026E0000320BDE8F0877068616800F00C00B0EB73
:1026F000810FF0D1D8F80010404601F00701A9423F
:102700000BD9016821F0070129430160006800F03E
:102710000700A84201D00120E3E72078400705D553
:102720007068E16820F4E06008437060207800077A
:1027300006D57068216920F4605040EAC1007060DD
:1027400000F038F87168084AC1F30311515CC840C1
:102750000649086006480068FFF714FE0020C0E73D
:10276000002002400010024082B300082010002028
:10277000181000200448054900684968044AC1F35C
:102780000221515CC8407047201000200010024018
:1027900092B300080448054900684968044AC1F337
:1027A000C221515CC8407047201000200010024038
:1027B00092B3000812A085B00FC88DE80F0014A0D6
:1027C000144B006804905968134801F00C02042A65
:1027D00010D0082A0ED1C1F38342C9031DF80200AC
:1027E0000AD5596804AAC1F34041515C0A4A5043D2
:1027F000B0FBF1F005B0704708494843FAE7000024
:1028000002030405060708090A0B0C0D0E0F101031
:10281000010200000010024000127A0000093D0091
:102820002DE9F84F04006FD02078BE4DC00747D087
:102830006868C0F38100012807D06868C0F3810090
:10284000022809D16868C00306D52868800337D5F7
:1028500060680028E7D033E06068B0F5803F0BD0B7
:1028600010B1B0F5A02F11D0286820F48030286076
:10287000286820F4802002E0286840F48030286036
:10288000606888B1FFF74AF9064609E0286840F415
:1028900080202860F0E7FFF741F9801B642873D897
:1028A00028688003F7D50BE0FFF738F9064604E007
:1028B000FFF734F9801B6428F1D828688003F7D427
:1028C0002078DFF8648280074FF0010A4FF000099A
:1028D00039D5686810F00C0F07D06868C0F3810024
:1028E000022809D16868C00306D42868800714D577
:1028F0002069012808D110E02069B0B1C8F800A013
:10290000FFF70CF9064605E007E1FFF707F9801B22
:102910000228C4D828688007F7D52868616920F0A4
:10292000F80040EAC10028600DE0C8F80090FFF709
:10293000F5F8064604E0FFF7F1F8801B022823D8DB
:1029400028688007F7D4207800072CD57748A1693C
:10295000D9B1C0F800A0FFF7E1F8064604E0FFF7A0
:10296000DDF8801B02280FD8686A8007F7D5704809
:102970004FF4FA510068B0FBF1F0009000BF0098EE
:10298000411E0091FAD20EE07CE0C0F80090FFF703
:10299000C5F8064604E0FFF7C1F8801B022871D88D
:1029A000686A8007F7D4207840075BD5E86900277C
:1029B000C00008D4E86940F08050E861E869012768
:1029C00000F0805000905B480168C90511D401688F
:1029D000834641F480710160FFF7A0F8064604E0E9
:1029E000FFF79CF8801B64284CD8DBF80000C0057A
:1029F000F6D5E06801280AD008B1052813D0286A66
:102A000020F001002862286A20F0040002E0286A11
:102A100040F001002862E06841F2883B88B1FFF78E
:102A20007DF8064609E0286A40F004002862EEE7D7
:102A3000FFF774F8811B59455BD8286A8007F7D5E2
:102A40000BE0FFF76BF8064604E0FFF767F8811B21
:102A500059454ED8286A8007F7D41FB1E86920F09D
:102A60008050E861E069A8B36968C1F38101022977
:102A700046D00228484606D0C8F86000FFF74EF856
:102A8000044639E035E04746C8F86000FFF746F8ED
:102A9000064604E0FFF742F8801B022829D8286880
:102AA0008001F7D4206AB0F5803F05D16868A1683D
:102AB00020F4003008436860D4E9080108436968DD
:102AC00021F4741108436860C7F860A0FFF726F886
:102AD000044605E023E0FFF721F8001B022808D890
:102AE00028688001F7D51AE0FFF718F8001B0228C4
:102AF00002D90320BDE8F88F28688001F4D40EE0E5
:102B00000128F7D06868226A00F48031914204D12C
:102B1000616A00F47010884201D00120EAE70020C9
:102B2000E8E70000001002400000424280044242F8
:102B3000201000200070004010B5401EB0F1807FD2
:102B400001D3012010BD4FF0E02460610F21601718
:102B500006F076FC0020A06107202061002010BD57
:102B60007047704710B590F83C20012A22D001220E
:102B700080F83C20CA688C6822F4407222434C687A
:102B800022F4806222430C6822F4006222430C6922
:102B900022F4805222434C6922F400522243C96934
:102BA000002322F480420A4301684A6480F83C30E2
:102BB000002010BD022010BD70B590F83C20012A05
:102BC0002CD0012580F83C50022280F83D2002687C
:102BD0005368946823F070060B6833435360104BBE
:102BE00002689A420ED00F4B9A420BD0B2F1804F3E
:102BF00008D00D4B9A4205D00C4B9A4202D00C4B98
:102C00009A4204D1496824F080031943916080F806
:102C10003D50002180F83C10084670BD022070BD78
:102C2000002C014000340140000400400008004036
:102C3000000C004010B5044649B104290AD0082907
:102C40000BD094F8450001280AD0012010BD94F85B
:102C50004200F8E794F84300F5E794F84400F2E7FF
:102C6000022061B304292DD008292ED084F8450014
:102C70000422206802F013FB2068416C41F40041FB
:102C800041641349206888420ED0124988420BD013
:102C9000B0F1804F08D01049884205D00F498842D2
:102CA00002D00F49884204D1816801F0070106294A
:102CB00003D0016841F001010160002010BD84F8DB
:102CC0004200D5E784F84300D2E784F84400CFE718
:102CD000002C014000340140000400400008004086
:102CE000000C004010B5040003D094F83D0010B172
:102CF00007E0012010BD002084F83C00204600F0D1
:102D00001FF8022084F83D00211D206802F074FAAB
:102D1000012084F8460084F83E0084F83F0084F8DF
:102D2000400084F8410084F8420084F8430084F8AD
:102D3000440084F8450084F83D00002010BD0000E8
:102D400008B50068104A1149904208D1C86940F09E
:102D50000800C861C86900F00800009008BD0C4A6E
:102D60009042FBD1C86940F01000C861C8690022D8
:102D700000F01000009011463620FFF74FFBBDE831
:102D800008403620FFF73CBB000C0040001002401A
:102D90000010004090F83D10012901D0012070473B
:102DA000022180F83D1000680E4988420ED00E497D
:102DB00088420BD0B0F1804F08D00C49884205D032
:102DC0000B49884202D00B49884204D1816801F046
:102DD0000701062903D0016841F0010101600020CC
:102DE00070470000002C0140003401400004004006
:102DF00000080040000C004070B5044690F83C000C
:102E0000012817D0012584F83C50022084F83D00A9
:102E10002068826822F0770222F47F42826008688C
:102E2000502830D00DDC20284DD005DC98B3102878
:102E30003BD148E0022070BD302844D0402834D136
:102E400039E0602828D0702806D0B0F5805F2CD0FB
:102E5000B0F5005F29D10AE0CB68D1E901212068F3
:102E600002F02AFA2068816841F0770109E0CB6816
:102E7000D1E90121206802F01FFA2068816841F43D
:102E80008041816011E0CA684968206802F0E8FA70
:102E90005021206807E016E0CA684968206802F0FF
:102EA000F0FA6021206802F011FA84F83D50002009
:102EB00084F83C0070BDCA684968206802F0D0FA06
:102EC00040212068EFE7226801461046EBE72DE934
:102ED000F0410D46040003D094F83D0018B108E01D
:102EE0000120BDE8F081002084F83C00204600F07D
:102EF00041F8022084F83D002068816844F207020E
:102F000091438160211D206802F076F92068816874
:102F10008269066A2B68AF690B4340F203318A432A
:102F200042EA0722A968EF6911434FF6FC42914338
:102F3000EA6841EA07210A4329692F6A090141EA3F
:102F4000073111436A686D6926F0220646EA0515C5
:102F50002A4383602068816154F8460B0262012095
:102F600004F81F09E0752076E0762077A075002030
:102F7000B7E7000000B585B00021009101910291F2
:102F8000039100680E49884218D10E48816941F4C6
:102F900000518161816901F400510491816941F01E
:102FA000100181618069694600F010000490C02022
:102FB0000090012002900448FEF7AEFC05B000BD71
:102FC00000340140001002400010014070B590F83C
:102FD0003E50044690F83F3090F8422090F843006D
:102FE000022621B104290BD0012D16D10FE0012DAD
:102FF00013D1012A11D184F83E6084F8426016E0B2
:10300000012B0AD1012808D184F83F600DE0012B83
:1030100003D1012A01D1012801D0012070BD84F81B
:103020003E6084F83F6084F8426084F8436091B168
:10303000042904D001220021206802F023F9012292
:103040000421206802F01EF92068016841F00101A6
:103050000160002070BD012200212068F2E7704766
:1030600070B50446006801694FF00005C94389073F
:1030700015D4C168C943890711D4E91E0161012033
:103080002077206880698007204602D0FFF7E7FF9D
:1030900004E000F0CFF8204600F0ACF92577206876
:1030A0000169C943490717D4C168C943490713D403
:1030B0006FF004010161022020772068806910F41C
:1030C000407F204602D0FFF7CAFF04E000F0B2F8CC
:1030D000204600F08FF9257720680169C943090768
:1030E00016D4C168C943090712D46FF00801016101
:1030F000042020772068C0698007204602D0FFF7AF
:10310000AEFF04E000F096F8204600F073F9257752
:1031100020680169C943C90617D4C168C943C906F3
:1031200013D46FF010010161082020772068C06976
:1031300010F4407F204602D0FFF791FF04E000F03A
:1031400079F8204600F056F9257720680169C943CF
:10315000C90708D1C168C943C90704D1891E0161E3
:10316000204600F0A7F920680169C943090609D47F
:10317000C168C943090605D46FF08001016120468A
:10318000FFF7EEFC20680169C943490609D4C1680C
:10319000C943490605D46FF040010161204600F0A3
:1031A0008AF920680169C94389060BD4C168C943FB
:1031B000890607D46FF0200101612046BDE8704008
:1031C000FFF7CFBC70BD000010B586B000210091A4
:1031D000019102910391134C0168134A0223134891
:1031E000A1420AD1916941F008019161916901F010
:1031F000080104914FF4C0410BE00D4CA1420ED1E7
:10320000916941F008019161916901F0080104910F
:103210000321CDE9001369460393FEF77DFB06B059
:1032200010BD0000002C014000100240000C0140C5
:1032300000040040704710B5040003D094F83D002E
:1032400010B107E0012010BD002084F83C002046AA
:1032500000F01EF8022084F83D00211D206801F0D6
:10326000CBFF012084F8460084F83E0084F83F003C
:1032700084F8400084F8410084F8420084F8430058
:1032800084F8440084F8450084F83D00002010BD17
:10329000704770B5044690F83C000D4601280AD0EE
:1032A000012084F83C0042B1042A18D0082A2AD010
:1032B0000C2A4DD139E0022070BD206802F00EF8D2
:1032C0002068816941F0080181612068816921F0ED
:1032D00004018161206881692A69114311E0206835
:1032E00002F02CF82068816941F400618161206856
:1032F000816921F480618161206881692A6941EADC
:103300000221816124E0206802F04EF82068C16942
:1033100041F00801C1612068C16921F00401C16167
:103320002068C1692A69114311E0206802F070F831
:103330002068C16941F40061C1612068C16921F45C
:103340008061C1612068C1692A6941EA0221C161C5
:10335000002084F83C0070BD10B5040003D094F840
:103360003D0010B107E0012010BD002084F83C00B2
:10337000204600F01FF8022084F83D00211D20683F
:1033800001F03AFF012084F8460084F83E0084F8FA
:103390003F0084F8400084F8410084F8420084F83B
:1033A000430084F8440084F8450084F83D00002080
:1033B00010BD000008B500680B4A0C49904207D1C7
:1033C000886940F400608861886900F4006009E061
:1033D000074A904207D1C86940F00200C861C86935
:1033E00000F00200009008BD002C014000100240D7
:1033F000000400407047000010B5044649B104299C
:103400000AD008290BD094F8410001280AD00120E5
:1034100010BD94F83E00F8E794F83F00F5E794F803
:103420004000F2E7022081B3042932D0082933D0CA
:1034300084F841000122206801F024FF184A206826
:103440001849904201D0884203D1436C43F40043B1
:103450004364206890420DD088420BD0B0F1804F79
:1034600008D01149884205D01049884202D010493D
:10347000884204D1816801F00701062903D0016860
:1034800041F001010160002010BDFFE784F83E001B
:10349000D0E784F83F00CDE784F84000CAE7000099
:1034A000002C0140003401400004004000080040AE
:1034B000000C004070477047FEE700000148FEF72F
:1034C00035BB00007425002038B5406A002290F812
:1034D0003D302A490C6846F2A811B4FBF1F1C1EB6A
:1034E000C10101EB8101009139B1491E00910168D0
:1034F0000968890505D50099F6E7016C41F02001BE
:103500000164416B01B18A62816B01B18A62016819
:103510000C6824F480640C604285416B01B14A63FD
:10352000816B01B14A6301680C6824F001040C60EE
:1035300090F83D402021602C0AD0282434EA03036F
:103540000ED080F83D1080F83E20FEF707FC38BD15
:1035500080F83D1080F83E200264FEF7E5FA38BDA1
:1035600001680B6843F001030B6001680B6843F4CA
:1035700080630B60026380F83D40E6E72010002086
:1035800010B5406A0022416B01B18A62816B01B1C2
:103590008A6201680B6823F480630B6042852021F6
:1035A00080F83D1080F83E20016C41F0100101646C
:1035B000FEF7D4FB10BD2DE9F041446A94F83D10AC
:1035C00094F83E50E06A2268536823F440735360D5
:1035D000626B002302B19362A26B02B1936221225B
:1035E00032EA01074FF022060CD036EA010701D17A
:1035F000202D07D094F83E10002921D0618D01299B
:1036000020D024E02068456825F400654560638586
:103610002820292902D02A2907D00CE0226384F827
:103620003D002046FEF793FE05E0266384F83D004A
:103630002046FEF78BFE2068416841F440714160EE
:10364000BDE8F08121680A6822F480620A6021687E
:103650004A6822F440724A6010F5803F06D008287C
:1036600004D0B0F12A4F01D0202804D1206801688D
:1036700041F4007101602068416821F4805141608B
:103680002068416821F4006141606385206C18B1B5
:103690002046FEF763FBD3E7202084F83D0094F832
:1036A0003E0084F83E30402805D01220206320469A
:1036B000FEF7D3FCC4E723632046FEF7D0FCBFE748
:1036C00070B5044690F83D0094F83E10102901D0E2
:1036D000402906D1222804D121680A6822F4006218
:1036E0000A60282131EA00024FF000054FF0200661
:1036F00026D021684968090505D4602803D084F8DC
:103700003D6084F83E50256320684168090537D53F
:10371000416821F400614160606B3D4990F82120CF
:10372000012A11D04163606BFDF7ECFD38B32068CE
:10373000016821F00101016084F83D60606B1CE0CC
:10374000256384F83D10DFE7A06B4163A06BFDF7B4
:10375000D9FDA0B120684169C943490605D4006973
:10376000616A0870606A401C60622068016821F02C
:103770000101016084F83D60A06B416B884710E057
:1037800094F83D10602910D04169C943490605D419
:103790000069616A0870606A401C60622046FEF73A
:1037A000DDFA206CC1071CD115E084F83D6025646A
:1037B0004169C943490605D40069616A0870606AB5
:1037C000401C60622068016821F001010160204610
:1037D000FEF7AAF9E5E7810703D4410701D4000702
:1037E00004D52068416821F4E061416094F83D000F
:1037F000216C49070BD5282809D10648E0622563CA
:1038000084F83D6084F83E502046FEF725FC70BDEC
:10381000C93400080000FFFF01684A69D24352051D
:103820000FD46FF480624A61002140F8301F2022DB
:1038300042738173026942F0040202610173012044
:1038400070470020704710B5C26A438D0168042B91
:1038500006D0438D032B08D0438D022B1DD012E0E0
:103860004A6822F480624A600CE04B6823F480636B
:103870004B60042A06D0022A04D001680A6822F4A8
:1038800080620A6001680969426A1170416A491CD4
:103890004162418D491E418510BD012A30D0102A58
:1038A0002ED0042A30D0022A2ED00A6842F40072A8
:1038B0000A6001680969426A1170416A491C4162E3
:1038C000428D521E4285026812690A70416A491C83
:1038D0004162418D491E418501684A6822F4407267
:1038E0004A60202180F83D1090F83E200021402AB7
:1038F00080F83E100CD012210163FEF7AEFB10BD24
:103900000A6822F48062D3E70A6842F48062CFE753
:103910000163FEF7A4FB10BD38B590F83D102229D5
:1039200014D1418D032912D901680969426A1170C5
:10393000416A491C4162418D491E4185418D0329DF
:1039400004D10068416821F48061416038BDC26AD9
:10395000022AFBD0012901D00029F7D1274946F2DC
:10396000A812002309682024B1FBF2F101EB8101C8
:1039700000910168009A521E009222D00A689205B6
:10398000F8D40A6822F480620A6001684A6822F466
:10399000E0624A6001680969426A1170416A491C23
:1039A0004162418D491E418580F83D4090F83E10AE
:1039B00080F83E3040291DD012210163FEF74DFBF7
:1039C00038BD026C42F0200202644A6822F4E062D0
:1039D0004A6001680969426A1170416A491C416282
:1039E000418D491E418580F83D4080F83E30FEF70C
:1039F000B5F938BD0363FEF732FB38BD2010002057
:103A000010B5C16A90F83D20212A0BD1428D52B1E8
:103A1000416A026809781161416A491C4162418D1D
:103A2000491E418510BD20230022082912D02029DB
:103A300010D011F5803F0DD001684C6824F4E0648B
:103A40004C601121016380F83E2080F83D30FEF784
:103A500005FB10BD01684C6824F4E0644C6001680B
:103A60000C6844F400740C60026380F83D3090F8F8
:103A70003E1080F83E204029E9D1FEF7F1FA10BD52
:103A800010B590F83D2090F83E30C16A048DB4B175
:103A9000212A03D0402B11D1222A0FD1418DE9B325
:103AA00090F83E10402940D0416A026809781161BF
:103AB000416A491C4162418D491E418510BD212A40
:103AC000E8D120230022082912D0202910D011F596
:103AD000803F0DD001684C6824F4E0644C601121F3
:103AE000016380F83E2080F83D30FEF7B7FA10BD44
:103AF00001684C6824F4E0644C6001680C6844F48C
:103B000000740C60026380F83D3090F83E1080F83D
:103B10003E204029E9D1FEF7A3FA10BDFFE7006877
:103B2000416821F480614160F7E7BDE8104000F092
:103B3000F2B8000078B590F83E40C26A056B90F884
:103B40003D6000230168222E73D1066D0EB9402C12
:103B50006FD0046D1CB90469B4F5404F1BD0448D7F
:103B600094B3468D484C012E20D0458D022D4DD06A
:103B70000D6845F480650D6001684D682D0579D5A7
:103B8000A24273D0012A71D0082A6FD0102A6DD0BA
:103B9000202A6BD06EE04A698A6900920A6842F472
:103BA00080720A60016D491C016578BDA24214D182
:103BB0000A6822F480620A6001684A68120504D526
:103BC0000A6822F4806217E0FFE74A698A69009276
:103BD0000A6842F400720A6050E0082A10D0202AD5
:103BE0000ED0122D0AD0042A03D0022A01D0102AA6
:103BF000E6D10A6842F480620A603BE0012ADFD025
:103C00000A6822F480620A600168DEE7042A11D0A3
:103C1000022A0FD0102A0DD00D6845F400650D6002
:103C200001684D698D6900950D6825F480650D600A
:103C300008E025E00D6845F480650D6001684D6978
:103C40008969009101684D682D0517D5A24207D0FA
:103C5000012A05D0082A03D0102A01D0202A0DD12C
:103C60004A6842F480524A6008E0FFE74A6842F43A
:103C700080524A6001684A6989690091036578BD8C
:103C800048698869009078BD0000FFFF90F83E10F9
:103C900040290FD00169B1F5804F18D0016DA1B353
:103CA000016D01290FD1416CF12201F4407142EA0A
:103CB000D11106E0016D0029416C05D0C9B241F077
:103CC000010100680161704701F0FE01F9E790F819
:103CD0003D102129416C09D0C9B241F001010268AF
:103CE0001161416B29B1896A49B902E001F0FE0115
:103CF000F5E7816B0029E6D0896A0029E3D00068E6
:103D0000416841F4006141607047FFE7416CF02277
:103D100001F44071CBE710B590F83D10026D22B36D
:103D2000026D012A2FD0026D022A1DD122292FD027
:103D3000428D0AB1212933D0428D002A14D1212984
:103D400012D101684A6822F4E0624A6001680A6898
:103D500042F400720A6000210163202280F83D20B5
:103D600080F83E10FEF77CF910BDC16C0129816C12
:103D700002D0C1F3072108E00268C9B21161016DE8
:103D8000891C016510BD816CC9B20268116104E033
:103D900001680A6842F480720A60016D491CF0E70C
:103DA000416A026809781161416A491C4162418D8A
:103DB000491E418510BD00002DE9F8430446006806
:103DC0000D46DDE9089701689846164641F4807172
:103DD00001604B4600224FF001112046009700F091
:103DE00011F948B120680068C00502D54FF4007091
:103DF00020640320BDE8F883216805F0FE00086117
:103E00003B464A461549204600F030F988B92068FB
:103E10004169806900903A464946204600F072F9AF
:103E200048B1206C042804D12068016841F4007175
:103E300001600120DEE7F5B2B8F1010F09D0216879
:103E4000300A08613A464946204600F05BF90028EE
:103E5000E7D1206805610020CCE7000002000100E6
:103E600038B50D4690F83D2000212824944302687F
:103E70000B4605D051699169009180F83C3038BDFE
:103E8000546824F480645460EA43540700D5012147
:103E9000120601D5828900E0028B80F83C3092B294
:103EA000FDF743FE38BD0000F8B590F83D500446DC
:103EB0000068416821F4E0614160206800264169A2
:103EC0000091016841F0010101602068016821F45E
:103ED0008061016020684168090520D5474F222D87
:103EE00048D02A2D46D0616B096849686185618D8B
:103EF00019B1216C41F004012164416821F4006191
:103F00004160606BFDF796FA012808D0606B47634B
:103F1000606BFDF7F7F910B1606B416B8847608DFE
:103F200008B320684169C943490708D40069616A38
:103F30000870606A401C6062608D401E6085206869
:103F40004169C943490608D40069616A0870606A1A
:103F5000401C6062608D401E6085608D18B1206CD1
:103F600040F004002064206C00B32046BDE8F84017
:103F7000FFF7A6BBA16B096849686185618D19B11E
:103F8000216C41F004012164416821F40061416029
:103F9000A06BFDF74FFA0128C1D0A06B4763A06B5F
:103FA000FDF7B0F90028BAD0A06BB6E72A2D06D1EC
:103FB0002663282084F83D002046FEF7C7F994F8D0
:103FC0003D10202028290DD0216B222901D0222D3F
:103FD00007D1266384F83D0084F83E602046FEF752
:103FE000B5F9F8BD0649E162266384F83D0084F81E
:103FF0003E602046FEF730F8F8BD0000C9340008E6
:104000000000FFFF2DE9F0471D4690460E4604468E
:10401000C1F30747DDF8209008E0681C06D0FDF7E3
:104020007DFDA0EB0900A8420FD875B12068012FD3
:1040300018D0806926EA00000004000C14D000208B
:104040004045EAD00020BDE8F087002044F8300F5A
:1040500020216173A073216941F020012161207347
:104060000120F0E74069E5E70120E9E72DE9F047A5
:10407000984615460E4604464FF000094FF0200AB8
:10408000C1F3074723E020684069C043400515D4C9
:104090002068016841F40071016021686FF480605C
:1040A0004861C4F8309084F83DA084F83E90216CBB
:1040B00041F00401216484F83C901EE0681C06D0A5
:1040C000FDF72CFDA0EB0800A8420AD84DB12068EE
:1040D000012F15D0806926EA00000004000C0DD0E5
:1040E000D1E744F8309F84F80DA084F80E90216940
:1040F00041F02001216184F80C900120BDE8F08797
:104100004069E8E770B516460D4604460DE02046C6
:10411000FFF782FB08B1012070BD681C05D0FDF7D8
:10412000FDFC801BA84207D835B120684069C04318
:104130000006ECD4002070BD002044F8300F202190
:104140006173A073216941F0200121612073E2E7CE
:104150002DE9F0476D4D6E4F2846B5F92810092618
:104160000024006C002902DA002803DC11E010DDD5
:1041700000280EDA7878411C79700A280AD943F2AF
:10418000CA20AC60F8802E701221002000F02CFBB9
:1041900000E07C705F480068401CB0F500400146BC
:1041A000286300D540420A2802DAE87801281AD0AC
:1041B0002C710846FCF761F98046296FFCF7B0F8CE
:1041C000FCF77AF96863C7F80C804046B968FCF7D9
:1041D0006FF88146FCF770F9002800DA40420328A6
:1041E00004DA2C8510E001202871E2E795F824001C
:1041F000FCF74CF901464846FCF792F84649FCF7B3
:104200005DF8FCF759F92885C7F808802A784348F3
:104210004FF48071092A0DD00122FDF77AFC6878ED
:1042200008B100F07FF8A87808B100F0F5F86878D8
:1042300038B10BE00022FDF76CFC2C652C662C6479
:104240005AE0A87810B9B5F926002864286C00282F
:10425000014600DA494241F2883343F2C9229942C9
:1042600006DD298D21B92A491031097808290FD096
:10427000002800DA4042984201DD288D70B1AC6020
:10428000286C642100281DDA2A78012A15D025E03F
:10429000A8680A30A860984207D8F1E7A86840F6F5
:1042A000B8310A30A8608842EAD9AC60FA802E7032
:1042B0001221002000F098FAE2E7404290FBF1F072
:1042C000C1B21EE007DD2A78012A07D190FBF1F088
:1042D000C1B2022016E02878012811D00021032065
:1042E00000F05CFA2E702C656C662C660C48EC664F
:1042F0002C640460001D04606C64EC84BDE8F087ED
:1043000000210320BDE8F04700F048BA1024002047
:10431000A80F00202434014000606A4700080140D3
:10432000342C01402DE9F047374CE06A216B81467F
:104330008846401AFCF7A1F8E065FCF7BDF80028B4
:1043400000DA40420026052808DA304800780828BC
:1043500004D0E665A6652666E6666664D4E917506D
:104360002946FBF753FF206607462846A16DFBF759
:104370009FFFA5656066216AFBF7A0FF824638466D
:10438000E169FBF79BFF07462846A169FBF796FF0B
:104390003946FBF73BFF5146FBF738FFE066FCF779
:1043A0008BF8616C05280144616407DAB8EB0900F9
:1043B00000D54042032801DA66642666B4F9380065
:1043C000626C41428A4201DB114600E06164814235
:1043D00000DD6064A0780028606C0AD0FCF75BF810
:1043E0000B4A0C4BFBF7DAFFFCF793F8E084BDE8CF
:1043F000F08700F2E73140F2CF72914201D2266499
:10440000F5E72064F3E7000010240020B80F002037
:10441000A245B6F3FD5415402DE9F0411C4CB4F90A
:104420002600B4F92810401AFCF727F80546E06486
:104430002946206DFBF7EAFE206506462846A16C5A
:10444000FBF736FFA56460656169FBF737FF074638
:1044500030462169FBF732FF06462846E168FBF744
:104460002DFF3146FBF7D2FE3946FBF7CFFEA066A3
:10447000FCF722F8216C00B2084406492064884207
:1044800002DB4942884200DD2164BDE8F081000082
:1044900010240020F0D8FFFF2DE9F05F5E485F4C4C
:1044A0004FF0090A90F80080B8F1000F33D023468E
:1044B000594DD3E90B01103DB3F928C0AB788646BE
:1044C000091A581CC7B254480126DFF854B14A42B1
:1044D00080784FF00009B8F1060F20D0B8F1080F2E
:1044E0001BD178B3DFF83C81152856D0162854D05C
:1044F0001B2812D101215846FDF706FB012847D0A1
:1045000043F2DF11C8F800104FF4FA70E062267031
:10451000EE70162114E084F800A0BDE8F09F90B181
:104520001A28FAD1002900DA11460A29F5DABCF175
:10453000000FF2D1AF700A2BEFD984F800A006214A
:10454000022058E011E03848A0613848E06138485E
:1045500020622670012210215846FDF7DAFA6869B8
:10456000E06285F802901A21EAE7012210215846FC
:10457000FDF7CFFA85F800904FF49671A98042F2CA
:104580001071218784F8039085F802901B21D7E7EA
:104590004CF61F61C8F800101BE0002900DA114634
:1045A000AA889142B9DABCF1000FB6D1AF700A2BDC
:1045B000B3D9162809D0BEF1000F10D085F80390AA
:1045C0000A20C4F82C90A880A7E74CF61F60C8F812
:1045D00000001848E0622670EE701521B0E72878D8
:1045E00001280CD043F2CB20C4F80890E8801221B7
:1045F00084F800A00020BDE8F05F00F0F5B842F2BA
:1046000010702087E6700021092000F0C7F884F8B8
:1046100000A0082194E70000B80F0020102400201B
:1046200000080140243401400000A0416F12833A89
:104630000000FA430CFEFFFFF0B585B000243348BC
:104640000094019402940394816941F00401816112
:10465000816901F004010491816941F008018161DF
:1046600080692B4F00F008004FF480760490002200
:1046700031463846FDF74DFA0320039001252548C1
:104680006946CDE9005038460295FDF745F902200C
:10469000CDE90240CDE9006569463846FDF73CF9B1
:1046A000E8038DE8310069461B48FDF735F9002223
:1046B00011460620FDF7B2FE0620FDF7A1FE1748C1
:1046C000FEF768FB00211548FEF7B4FA04211348F1
:1046D000FEF7B0FA1348124901671349C0E9031401
:1046E0001249C0E905411249C1611249016242F211
:1046F0001071018784704570092101701E21C180ED
:104700001C2180F8241005B0F0BD0000001002400C
:104710000008014000003110000C01400C26002070
:10472000295C0F3F10240020CDCCCC3D0000A041DF
:104730006F12833A0000FA4310B50A461449642305
:10474000154C0988B1FBF3F140F2AF135943114BFB
:1047500003EB41012378B1F9D01251431E2291FBA2
:10476000F2F2A4F1100183424A610DD1A0780B2826
:1047700008D0834204D10B21022000F035F801E07B
:10478000FFF78AFEA07810BD01460020F5E7000083
:10479000DE01002028150020B80F002010B5094BBD
:1047A00064221C1FC1F16401022804D0032805D033
:1047B00022601A6010BD1960226010BD1A6021606D
:1047C00010BD0000382C014070B5054D0121044694
:1047D00029700A4610210348FDF79BF9EC6270BD71
:1047E0001024002000080140064A937810B1D370CD
:1047F00091707047107850701170D37000209070D5
:1048000070470000B80F002000B500210320FFF71B
:10481000C5FF08490920084A087000200865486655
:104820000866C86608641060121D10604864C88479
:1048300000BD000010240020342C01403EB50021B2
:10484000144800910191124A029102600124816092
:10485000047301754FF460220461C2614160FCF78A
:10486000F3FB08B1FCF777FA0A48FCF7FFFA08B146
:10487000FCF771FA0B20CDE900040720029069468D
:104880000448FCF75FFB002801D0FCF764FA3EBD4A
:104890000024014000250020114808B5416941F07D
:1048A000010141614069002200F0010000901146C1
:1048B0000B20FDF7B3FD0B20FDF7A2FD0022052123
:1048C0000F20FDF7ABFD0F20FDF79AFD00221146EA
:1048D0001020FDF7A3FDBDE808401020FDF790BDB6
:1048E000001002400D4810B50B4901600C494160B1
:1048F00000214FF480428160C0E90312416181616F
:10490000C1610162FDF72EFA002803D0BDE8104016
:10491000FCF721BA10BD00000054004074250020AF
:10492000801A060010B592B000240F941C2168462E
:104930001094FBF742FC202107A8FBF73EFC274818
:10494000254901601F21C0E901146321C0E9031456
:1049500044618461FEF700FD08B1FCF7FCF91F48D3
:10496000FEF769FC08B1FCF7F6F90F940FA91B4894
:104970001094FEF721F908B1FCF7EDF96020CDE9BC
:104980000004029403940494059400226946134899
:104990000694FEF77EFC08B1FCF7DDF904226946B7
:1049A0000E48FEF776FC08B1FCF7D5F90794089499
:1049B00009944FF400500A94CDE90B4007A9074829
:1049C0000E94FEF7CFF808B1FCF7C5F90348FEF7DF
:1049D000FBFB12B010BD0000002C01400C26002093
:1049E00010B58AB0002407941C2168460894FBF790
:1049F000E4FB1A48184901601F21C0E90114632132
:104A0000C0E903148461FEF7A7FC08B1FCF7A3F921
:104A1000079407A911480894FEF7CEF808B1FCF7EF
:104A20009AF96020CDE900040294082269460B48F7
:104A30000494FEF72EFC08B1FCF78DF90C226946B0
:104A40000648FEF726FC08B1FCF785F90348FEF797
:104A5000BBFB0AB010BD000000040040542600203B
:104A600010B586B000241648009401940294039473
:104A7000049412490594C0E900144FF6FF71C0E98F
:104A8000024104618461FEF72DF908B1FCF763F976
:104A90004FF48050009069460948FEF7ADF908B11F
:104AA000FCF759F9049404A905480594FEF784F825
:104AB000002801D0FCF74FF906B010BD000C0040F3
:104AC0009C2600201CB500240F4800940D49019439
:104AD00001604021C0E901144FF6FF71C1608021DF
:104AE0008161FEF7FFF808B1FCF735F92020CDE928
:104AF000000469460448FEF75FF8002801D0FCF77F
:104B00002AF91CBD00100040E426002010B58CB02E
:104B100024216846FBF751FB0024174809941549E6
:104B20000A94C0E900144FF6FF71C0E90241046124
:104B3000446184610320CDE900040120CDE9020431
:104B400005210491CDE90540CDE9074169460A48B0
:104B5000FEF7BDF908B1FCF7FEF8099409A906486B
:104B60000A94FEF729F8002801D0FCF7F4F80CB0FD
:104B700010BD0000003401402C270020FEE77047E4
:104B80002DE9F041194F40213846FCF7BDFF184C84
:104B9000002518BB80213846FCF7B6FF01281DD13F
:104BA00040213846FCF7B0FF28B980213846FCF791
:104BB000ABFF01280AD080213846FCF7A5FF68B971
:104BC00040213846FCF7A0FF012807D120780128B2
:104BD00003D108480078642804D0012625703046A7
:104BE000BDE8F081002601202070F8E700080140B0
:104BF00010100020C9010020F0B585B000241E4827
:104C00000094019402940394816941F0040181614C
:104C1000816901F004010491816941F00801816119
:104C20008069164F00F008000490002210213846D9
:104C3000FCF76FFF4020022601258DE871006946D0
:104C40003846FCF769FE8020009069463846FCF73C
:104C500063FEA8020090694602940948FCF75CFED6
:104C60001020CDE90005CDE9024669463846FCF73B
:104C700053FE05B0F0BD00000010024000080140E6
:104C8000000C0140704700002DE9F041364E71885C
:104C9000B0680144B1603078421C3270092843D3B7
:104CA00000243470F068814201D1B46074802F4DCB
:104CB00095F82400FBF7EAFB0746B0688046FBF74F
:104CC000E5FB2B49FBF72CFB3946FBF7F7FA0146CE
:104CD0002848FBF725FBFBF7EFFB2885C6E90248D0
:104CE00029782548092916D001222021FCF711FF37
:104CF000A87808B100F042F8286C40F6C411884248
:104D000001DD288D90B1AC602878012820D0BDE865
:104D1000F04100F01DBA00222021FCF7FAFE2C65BC
:104D20002C662C646C64EC84BDE8F081A86841F2C8
:104D300088310A30A8608842E6D945F6D910AC60BF
:104D4000B080092028701221002000F0F1F9DBE783
:104D5000286C642190FBF1F0BDE8F041C1B2012262
:104D6000032000F0C3B90000C00F002088240020F9
:104D700000002041C0E1644C001001402DE9F041E9
:104D80001D4CB4F92600B4F92810401AFBF775FB46
:104D90000546E0642946206DFBF738FA2065064693
:104DA0002846A16CFBF784FAA56460656169FBF78E
:104DB00085FA074630462169FBF780FA0646284601
:104DC000E168FBF77BFA3146FBF720FA3946FBF73F
:104DD0001DFAA066FBF770FB216C00B2401820643E
:104DE00003D500202064BDE8F08142F210718842B2
:104DF000F9DD2164F7E70000882400202DE9F05F49
:104E000062496248634CA1F1180590F800C08B78A4
:104E1000002701265E482A69E16B4FF009094FF42B
:104E20007A7A45F6DB1BBCF1080F2FD019DCBCF1F8
:104E3000000F5FD0BCF1070F5CD1152B7AD06ADC74
:104E4000002B7AD0142B55D10421FCF75DFE0128EC
:104E500072D068696430686150454BD945F6DC1002
:104E600092E0BCF1100F08D0BCF1110F42D184F8D0
:104E70000090E7841121022012E026700122102107
:104E8000FCF747FEA88BE0841021F4E7B5F804C0D6
:104E900045F6D918C44507D3122184F800900020A4
:104EA000BDE8F05F00F044B97BB14FF01408142B5B
:104EB00014D0152B24D01B2B1CD10421FCF724FE6D
:104EC00048B12670A4F826A017E001221021FCF7B3
:104ED00020FE1B21CFE76F6126703BE00421FCF729
:104EE00013FE012808D0686940F2DC516430686123
:104EF00088423DD8BDE8F09F6F61C4F83C802EE049
:104F0000B1F5167F34DC914203D1E6702771082198
:104F1000B1E72961EEE71B2B19D01F2BEAD1914293
:104F2000F7D1FE29F5DB0421FCF7EEFD50B3267125
:104F30000721A0E715E000E010E0B1F5987F02D16D
:104F40004FF4AF71E163267027712F61BDE7E07800
:104F500098B96F61A4F826A014218CE76F61152120
:104F600089E7686940F6B83364306861984202D9CD
:104F7000A5F804B090E79142CBD12670A4F826A002
:104F80001F2178E745F6DD10A88085E7D80F0020BF
:104F900000080140882400202DE9F04385B000245A
:104FA00039480094019402940394816941F004010A
:104FB0008161816901F004010491816941F0080176
:104FC0008161816901F008010491816941F010015A
:104FD00081618069DFF8B49000F010000490002235
:104FE00020214846FCF795FD01250320CDE902501C
:104FF00027480227CDE90070DFF8988069464046CF
:10500000FCF78AFC24480426CDE900606946404646
:10501000FCF782FC009669462048CDE90145FCF783
:105020007BFC2020CDE90005CDE9024769464846D2
:10503000FCF772FC002211460720FDF7EFF907206C
:10504000FDF7DEF9002211460820FDF7E7F90820F8
:10505000FDF7D6F91248FDF79DFE08211048FEF72E
:10506000CBF90C210E48FEF7C7F90F480D49C16076
:105070000E4901610E4941610C2180F824108570B0
:1050800005B0BDE8F08300000010024000100140B0
:10509000000031100008014000002110000C014008
:1050A000542600209A99193F8824002017B7D13838
:1050B0000000404010B50C4C0A46A4F118032178BA
:1050C000DA6181420DD1A0780B2808D0814204D149
:1050D0000B21022000F02CF801E0FFF78FFEA078F2
:1050E00010BD01460020F5E7D80F0020F0B50F4BAA
:1050F000002664271C1FC1F16405022805D003287F
:105100000AD082B127601F60F0BD12B11D60276018
:10511000F0BD19602660F0BD12B11F602560F0BDC2
:105120001E602160F0BD26601E60F0BD400400409E
:10513000064A937810B1D370917070471078507010
:105140001170D3700020907070470000D80F0020BD
:1051500000B5012200210320FFF7C8FF05480921FF
:1051600001700021016541660166C1660164416408
:10517000C18400BD88240020704710B5FDF7E8F811
:10518000BDE8104003F0E0BD30B595B02821684679
:10519000FBF713F814210AA8FBF70FF818210FA842
:1051A000FBF70BF8022401200490009410200590D6
:1051B00000254FF46010CDE9085007946846FDF7CC
:1051C0002FFB0AA90F2081E831006002CDE90D050F
:1051D00002210AA8FDF732FA4FF4404011900F94D3
:1051E0000FA8FDF7B7F915B030BD70470148FDF7BE
:1051F00037BF0000E4260020F0B502681C4D1D4EAC
:105200001D4FDFF878C01E4B4FF0804EA84209D0EA
:10521000984207D0704505D0B04203D0B84201D0C3
:10522000604503D122F070044A682243A84209D0A5
:10523000984207D0704505D0B04203D0B84201D0A3
:10524000604503D122F44074CA6822434C6922F0BD
:105250008002224302608A68C2620A688262A842AF
:1052600001D0984201D10969016301214161F0BD7A
:10527000002C01400004004000080040000C0040E9
:105280000034014010B501F01F010123046A8B4076
:105290009C430462036A8A401343036210BD10B545
:1052A00001F01F010423046A8B409C430462036ADB
:1052B0008A401343036210BD10B5846842EA03229A
:1052C00024F47F440A432243826010BD826822F0A6
:1052D00070020A4342F0070181607047F0B5026A2C
:1052E00022F001020262026A43688469114E24F0CE
:1052F00073050C68104F2C4322F002058A682A437C
:10530000B04201D0B84205D122F00805CA682A434C
:1053100022F00402B04201D0B84205D14D6923F415
:1053200040731D438B692B4343608461496841632B
:105330000262F0BD002C014000340140F0B5026A69
:1053400022F010020262026A436884690D6824F444
:10535000E64444EA05248D6822F0200242EA051260
:105360000F4D104EA84201D0B04206D1CF6822F0B6
:10537000800242EA071222F04002A84201D0B04265
:1053800007D14D6923F4406343EA85038D6943EAFD
:10539000850343608461496881630262F0BD000057
:1053A000002C014000340140F0B5026A22F4807202
:1053B0000262026A4368C46922F4007224F0730531
:1053C0000C68124E2C438D6842EA05220E4DA8420D
:1053D00001D0B04206D1CF6822F4006242EA07222F
:1053E00022F48062A84201D0B04207D14D6923F473
:1053F000405343EA05138D6943EA05134360C461D2
:105400004968C1630262F0BD002C014000340140D4
:1054100030B5026A22F480520262036A4268C469AB
:105420000D6824F4E64444EA05248D6823F400530F
:1054300043EA0533084DA84202D0084DA84204D1E2
:105440004D6922F4804242EA85124260C461496893
:105450000164036230BD0000002C014000340140B3
:1054600010B5046A036A23F001030362836923F021
:10547000F00343EA021324F00A020A438361026242
:1054800010BD10B5036A23F0100303628469036A38
:1054900024F4704444EA023223F0A00343EA0111E9
:1054A0008261016210BD000070B50F4D044605EB2E
:1054B000C40300209E888E4203D3988005F83420D0
:1054C0000120002A08D1002806D0597829B19978FE
:1054D00039B1491E9970002070BD012159700A210F
:1054E00000E00321997070BDFC2700201CB501204D
:1054F0000190054805A241680091036816214020EB
:1055000004F0F4FB1CBD0000A0010020202020209E
:105510002020202020202020202000007CB50024F6
:10552000E0B101281CD0022823D13420CDE90004A9
:10553000002180230C22084604F032FA0125CDE92F
:10554000005480230A220021284604F029FACDE9DC
:105550000054802336220021012008E0402000E092
:105560000B20CDE90004002280231146104604F0F0
:1055700017FA7CBD184A5179242906D01E2906D075
:10558000122906D00C2906D007E0012005E00A20E8
:1055900003E0642001E04FF47A7010496423098825
:1055A000B1FBF3F140F2AF1359430D4B03EB410351
:1055B0001179C1EBC10101EB410103EB4101B2F9EA
:1055C0000C30B1F92C10181A814203DC90810220B2
:1055D00000F01CBC70470000E40F0020DE0100203A
:1055E000281500200D4A122311465079801FC0B2A1
:1055F00050718979182809D00C280AD002D24FF0AE
:105600000C0050714FF0020000F000BC19B91E20D0
:10561000F7E70129F6D15371F4E70000E40F002009
:105620000E4A5079801DC0B25071D17959B11E23F4
:1056300001290CD018280ED0242801D9242050711B
:10564000022000F0E3BB1828FAD11220F7E718284F
:1056500001D01E28F4D95371F2E70000E40F0020B6
:10566000184A5179242906D01E2906D0122906D0BD
:105670000C2906D007E0012005E00A2003E06420A1
:1056800001E04FF47A70104964230988B1FBF3F10B
:1056900040F2AF1359430D4B03EB41031179C1EBBA
:1056A000C10101EB410103EB4101B2F90C30B1F949
:1056B0002E101844814203DB9081022000F0A6BB2B
:1056C00070470000E40F0020DE01002028150020B4
:1056D0002DE9F05F924604F049FADFF880B0DFF878
:1056E00080900026002505EB8601022D3BF81180F5
:1056F00002D01027002423E00527FBE708FA04F076
:1057000000040BD599F8000004EB051299F802107B
:1057100010443144C0B2C9B252460DE099F80000BD
:1057200004EB05110844C0B2BAF1000F14D00022F6
:1057300099F802103144C9B204F010F9641CE4B2C3
:10574000BC42DBD36D1CEDB2032DCCD3761CF6B27C
:105750002B2EC7D3BDE8F09F0122E9E746000020C9
:10576000C001002070B5264A642801DD1079503848
:10577000244910716423098840F2AF14B1FBF3F59A
:105780006543214CC0EBC00004EB450500EB400035
:1057900005EB400540F2AF162D8E9581B1FBF3F578
:1057A000754304EB450505EB400595F83D50D57173
:1057B000B1FBF3F5B1FBF3F1754304EB450505EBE4
:1057C0004005714304EB410101EB400095F83C506A
:1057D00090F83D001821281A9071A0EB800001EB91
:1057E0004000C0B25071182801D11E205071022013
:1057F000FFF794FEBDE87040022000F007BB0000F8
:10580000E40F0020DE010020281500202DE9F041E2
:1058100049494A4E4A4D0889F714401C80B2088114
:10582000012828D02A154FF4805801F11C040528BE
:105830002AD0062844D00A284ED01AD94FF00003A7
:10584000404D0B811846215C012961D005EBC00158
:1058500005F83030CA884FF6F076B24201D20A32EB
:10586000CA808B804B700A228A70401CC0B2062806
:10587000E9D3BDE8F081002208213046FCF749F960
:1058800001223946284623E011462846FCF73CF918
:1058900080B10020607020213046FCF735F958B106
:1058A0000020E07041462846FCF72EF930B1002078
:1058B0006071DEE70120EDE70120F2E70120F7E764
:1058C000002239462846FCF724F9012208213046F7
:1058D000BDE8F041FCF71DB911462846FCF714F964
:1058E00080B10020207020213046FCF70DF958B11E
:1058F0000020A07041462846FCF706F930B1002090
:105900002071B6E70120EDE70120F2E70120F7E77B
:105910000D490E4A41F28836CB60FF21117005EB2C
:10592000C0029188B142A0D815F83060002E9CD1F9
:105930000A31918099E70000E40F0020000C01403B
:1059400000100140FC2700204C140020CE01002054
:1059500070B5144C144D6068401C81B2060C606038
:10596000288800F5FA6080B2FBF786F9288831466E
:1059700000F2D17080B2FBF77FF9A068401CA060F4
:1059800081B2040C288800F2D27080B2FBF774F95F
:1059900028882146BDE8704000F2D37080B2FBF742
:1059A0006BB900004C140020DE010020F0B585B07A
:1059B0000024244801940394816941F00801816125
:1059C000816901F008010491816941F01001816150
:1059D0008069012500F010000490A8021A4E009082
:1059E000029569463046FBF797FF2020174F00903D
:1059F00069463846FBF790FF280300906946304619
:105A0000FBF78AFF0220CDE902400820CDE900051E
:105A100069463846FBF780FFE80200906946304649
:105A2000FBF77AFF04F008F808B1FBF794F94FF49C
:105A30009670FBF79DFE03F0EBFF6420FBF798FEEA
:105A400005B0F0BD0010024000100140000C014004
:105A500010B50A490A4C002088602088002100F215
:105A6000D27080B2FBF708F92088BDE8104000F240
:105A7000D37080B20021FBF7FFB800004C14002067
:105A8000DE01002070B51D4C88B00E46054620880A
:105A900007A9FBF78FF8BDF81C00A8420AD02088A0
:105AA0002946FBF7E9F8208804EB4000A0F5805078
:105AB000A0F830582088401C83B2A3F58060238072
:105AC0004C3802D140F2E930208021884FF47A70BE
:105AD000FBF7D2F8002E0FD02A4609A102A803F046
